{
  "_format": "hh-sol-artifact-1",
  "contractName": "MetaLinks",
  "sourceName": "contracts/MetaLinks.sol",
  "abi": [
    {
      "inputs": [],
      "stateMutability": "nonpayable",
      "type": "constructor"
    },
    {
      "anonymous": false,
      "inputs": [
        {
          "indexed": true,
          "internalType": "uint256",
          "name": "avatarID",
          "type": "uint256"
        },
        {
          "indexed": false,
          "internalType": "address[]",
          "name": "newAddresses",
          "type": "address[]"
        }
      ],
      "name": "AvatarAddressesAdded",
      "type": "event"
    },
    {
      "anonymous": false,
      "inputs": [
        {
          "indexed": true,
          "internalType": "uint256",
          "name": "avatarID",
          "type": "uint256"
        },
        {
          "indexed": false,
          "internalType": "string",
          "name": "name",
          "type": "string"
        },
        {
          "indexed": false,
          "internalType": "string",
          "name": "aka",
          "type": "string"
        },
        {
          "indexed": false,
          "internalType": "string",
          "name": "bio",
          "type": "string"
        },
        {
          "indexed": false,
          "internalType": "string",
          "name": "avatar",
          "type": "string"
        },
        {
          "indexed": false,
          "internalType": "string",
          "name": "bgAvatar",
          "type": "string"
        }
      ],
      "name": "AvatarCreated",
      "type": "event"
    },
    {
      "anonymous": false,
      "inputs": [
        {
          "indexed": true,
          "internalType": "uint256",
          "name": "avatarID",
          "type": "uint256"
        },
        {
          "indexed": true,
          "internalType": "uint256",
          "name": "newMetaLinkID",
          "type": "uint256"
        },
        {
          "indexed": false,
          "internalType": "string",
          "name": "name",
          "type": "string"
        },
        {
          "indexed": false,
          "internalType": "string",
          "name": "aka",
          "type": "string"
        },
        {
          "indexed": false,
          "internalType": "string",
          "name": "bio",
          "type": "string"
        },
        {
          "indexed": false,
          "internalType": "string",
          "name": "universe",
          "type": "string"
        },
        {
          "indexed": false,
          "internalType": "string",
          "name": "link",
          "type": "string"
        },
        {
          "indexed": false,
          "internalType": "string",
          "name": "avatar",
          "type": "string"
        },
        {
          "indexed": false,
          "internalType": "string",
          "name": "bgAvatar",
          "type": "string"
        },
        {
          "indexed": false,
          "internalType": "bool",
          "name": "active",
          "type": "bool"
        }
      ],
      "name": "MetaLinkAdded",
      "type": "event"
    },
    {
      "anonymous": false,
      "inputs": [
        {
          "indexed": true,
          "internalType": "address",
          "name": "previousOwner",
          "type": "address"
        },
        {
          "indexed": true,
          "internalType": "address",
          "name": "newOwner",
          "type": "address"
        }
      ],
      "name": "OwnershipTransferred",
      "type": "event"
    },
    {
      "inputs": [
        {
          "internalType": "address[]",
          "name": "_addresses",
          "type": "address[]"
        }
      ],
      "name": "addAvatarAddress",
      "outputs": [
        {
          "internalType": "bool",
          "name": "",
          "type": "bool"
        }
      ],
      "stateMutability": "nonpayable",
      "type": "function"
    },
    {
      "inputs": [
        {
          "internalType": "string",
          "name": "_name",
          "type": "string"
        },
        {
          "internalType": "string",
          "name": "_aka",
          "type": "string"
        },
        {
          "internalType": "string",
          "name": "_bio",
          "type": "string"
        },
        {
          "internalType": "string",
          "name": "_universe",
          "type": "string"
        },
        {
          "internalType": "string",
          "name": "_avatar",
          "type": "string"
        },
        {
          "internalType": "string",
          "name": "_bg_avatar",
          "type": "string"
        },
        {
          "internalType": "string",
          "name": "_link",
          "type": "string"
        },
        {
          "internalType": "bool",
          "name": "_active",
          "type": "bool"
        }
      ],
      "name": "addAvatarMetalink",
      "outputs": [
        {
          "internalType": "bool",
          "name": "",
          "type": "bool"
        }
      ],
      "stateMutability": "nonpayable",
      "type": "function"
    },
    {
      "inputs": [
        {
          "internalType": "address",
          "name": "",
          "type": "address"
        }
      ],
      "name": "addressesToMID",
      "outputs": [
        {
          "internalType": "uint256",
          "name": "",
          "type": "uint256"
        }
      ],
      "stateMutability": "view",
      "type": "function"
    },
    {
      "inputs": [
        {
          "internalType": "string",
          "name": "_name",
          "type": "string"
        },
        {
          "internalType": "string",
          "name": "_aka",
          "type": "string"
        },
        {
          "internalType": "string",
          "name": "_bio",
          "type": "string"
        },
        {
          "internalType": "string",
          "name": "_avatar",
          "type": "string"
        },
        {
          "internalType": "string",
          "name": "_bg_avatar",
          "type": "string"
        }
      ],
      "name": "createAvatar",
      "outputs": [
        {
          "internalType": "uint256",
          "name": "",
          "type": "uint256"
        }
      ],
      "stateMutability": "nonpayable",
      "type": "function"
    },
    {
      "inputs": [
        {
          "internalType": "address",
          "name": "_address",
          "type": "address"
        }
      ],
      "name": "getAvatarByAddress",
      "outputs": [
        {
          "internalType": "string",
          "name": "",
          "type": "string"
        },
        {
          "internalType": "string",
          "name": "",
          "type": "string"
        },
        {
          "internalType": "string",
          "name": "",
          "type": "string"
        },
        {
          "internalType": "string",
          "name": "",
          "type": "string"
        },
        {
          "internalType": "string",
          "name": "",
          "type": "string"
        },
        {
          "internalType": "uint256[]",
          "name": "links",
          "type": "uint256[]"
        }
      ],
      "stateMutability": "view",
      "type": "function"
    },
    {
      "inputs": [
        {
          "internalType": "uint256",
          "name": "_id",
          "type": "uint256"
        }
      ],
      "name": "getAvatarById",
      "outputs": [
        {
          "internalType": "string",
          "name": "",
          "type": "string"
        },
        {
          "internalType": "string",
          "name": "",
          "type": "string"
        },
        {
          "internalType": "string",
          "name": "",
          "type": "string"
        },
        {
          "internalType": "string",
          "name": "",
          "type": "string"
        },
        {
          "internalType": "string",
          "name": "",
          "type": "string"
        },
        {
          "internalType": "uint256[]",
          "name": "links",
          "type": "uint256[]"
        }
      ],
      "stateMutability": "view",
      "type": "function"
    },
    {
      "inputs": [
        {
          "internalType": "address",
          "name": "_address",
          "type": "address"
        }
      ],
      "name": "getAvatarID",
      "outputs": [
        {
          "internalType": "uint256",
          "name": "",
          "type": "uint256"
        }
      ],
      "stateMutability": "view",
      "type": "function"
    },
    {
      "inputs": [
        {
          "internalType": "uint256",
          "name": "_id",
          "type": "uint256"
        }
      ],
      "name": "getAvatarMetaLinkIDs",
      "outputs": [
        {
          "internalType": "uint256[]",
          "name": "links",
          "type": "uint256[]"
        }
      ],
      "stateMutability": "view",
      "type": "function"
    },
    {
      "inputs": [
        {
          "internalType": "uint256",
          "name": "_id",
          "type": "uint256"
        }
      ],
      "name": "getMetaLink",
      "outputs": [
        {
          "internalType": "string",
          "name": "",
          "type": "string"
        },
        {
          "internalType": "string",
          "name": "",
          "type": "string"
        },
        {
          "internalType": "string",
          "name": "",
          "type": "string"
        },
        {
          "internalType": "string",
          "name": "",
          "type": "string"
        },
        {
          "internalType": "string",
          "name": "",
          "type": "string"
        },
        {
          "internalType": "string",
          "name": "",
          "type": "string"
        }
      ],
      "stateMutability": "view",
      "type": "function"
    },
    {
      "inputs": [],
      "name": "getMyAvatarID",
      "outputs": [
        {
          "internalType": "uint256",
          "name": "",
          "type": "uint256"
        }
      ],
      "stateMutability": "view",
      "type": "function"
    },
    {
      "inputs": [
        {
          "internalType": "address",
          "name": "_address",
          "type": "address"
        }
      ],
      "name": "isAddressUsed",
      "outputs": [
        {
          "internalType": "bool",
          "name": "",
          "type": "bool"
        }
      ],
      "stateMutability": "view",
      "type": "function"
    },
    {
      "inputs": [
        {
          "internalType": "uint256",
          "name": "",
          "type": "uint256"
        }
      ],
      "name": "midsToAvatars",
      "outputs": [
        {
          "internalType": "string",
          "name": "name",
          "type": "string"
        },
        {
          "internalType": "string",
          "name": "aka",
          "type": "string"
        },
        {
          "internalType": "string",
          "name": "bio",
          "type": "string"
        },
        {
          "internalType": "string",
          "name": "avatar",
          "type": "string"
        },
        {
          "internalType": "string",
          "name": "bg_avatar",
          "type": "string"
        }
      ],
      "stateMutability": "view",
      "type": "function"
    },
    {
      "inputs": [
        {
          "internalType": "uint256",
          "name": "",
          "type": "uint256"
        }
      ],
      "name": "midsToMetaLinks",
      "outputs": [
        {
          "internalType": "string",
          "name": "name",
          "type": "string"
        },
        {
          "internalType": "string",
          "name": "aka",
          "type": "string"
        },
        {
          "internalType": "string",
          "name": "universe",
          "type": "string"
        },
        {
          "internalType": "string",
          "name": "link",
          "type": "string"
        },
        {
          "internalType": "string",
          "name": "bio",
          "type": "string"
        },
        {
          "internalType": "string",
          "name": "avatar",
          "type": "string"
        },
        {
          "internalType": "string",
          "name": "bg_avatar",
          "type": "string"
        },
        {
          "internalType": "bool",
          "name": "active",
          "type": "bool"
        }
      ],
      "stateMutability": "view",
      "type": "function"
    },
    {
      "inputs": [],
      "name": "owner",
      "outputs": [
        {
          "internalType": "address",
          "name": "",
          "type": "address"
        }
      ],
      "stateMutability": "view",
      "type": "function"
    },
    {
      "inputs": [],
      "name": "renounceOwnership",
      "outputs": [],
      "stateMutability": "nonpayable",
      "type": "function"
    },
    {
      "inputs": [],
      "name": "totalAddresses",
      "outputs": [
        {
          "internalType": "uint256",
          "name": "",
          "type": "uint256"
        }
      ],
      "stateMutability": "view",
      "type": "function"
    },
    {
      "inputs": [],
      "name": "totalAvatars",
      "outputs": [
        {
          "internalType": "uint256",
          "name": "",
          "type": "uint256"
        }
      ],
      "stateMutability": "view",
      "type": "function"
    },
    {
      "inputs": [],
      "name": "totalMetaLinks",
      "outputs": [
        {
          "internalType": "uint256",
          "name": "",
          "type": "uint256"
        }
      ],
      "stateMutability": "view",
      "type": "function"
    },
    {
      "inputs": [
        {
          "internalType": "address",
          "name": "newOwner",
          "type": "address"
        }
      ],
      "name": "transferOwnership",
      "outputs": [],
      "stateMutability": "nonpayable",
      "type": "function"
    }
  ],
  "bytecode": "0x60806040523480156200001157600080fd5b5062000032620000266200003860201b60201c565b6200004060201b60201c565b62000104565b600033905090565b60008060009054906101000a900473ffffffffffffffffffffffffffffffffffffffff169050816000806101000a81548173ffffffffffffffffffffffffffffffffffffffff021916908373ffffffffffffffffffffffffffffffffffffffff1602179055508173ffffffffffffffffffffffffffffffffffffffff168173ffffffffffffffffffffffffffffffffffffffff167f8be0079c531659141344cd1fd0a4f28419497f9722a3daafe3b4186f6b6457e060405160405180910390a35050565b61382a80620001146000396000f3fe608060405234801561001057600080fd5b50600436106101215760003560e01c8063787ee815116100ad578063b48375e411610071578063b48375e414610396578063baea526f146103b4578063cfad5277146103d2578063f2fde38b146103f0578063fc94b4651461040c57610121565b8063787ee815146102b45780637a2b8712146102e45780637c834e301461031857806386e7e492146103485780638da5cb5b1461037857610121565b806352cfbb43116100f457806352cfbb43146101f5578063569fdae71461022c5780635a4f0b2f1461025c5780636ac156db1461028c578063715018a6146102aa57610121565b8063013808aa14610126578063106f4ad814610156578063215cc0311461018b5780634347fec8146101c0575b600080fd5b610140600480360381019061013b91906129e8565b61043c565b60405161014d9190613290565b60405180910390f35b610170600480360381019061016b9190612c69565b6106ba565b60405161018296959493929190613076565b60405180910390f35b6101a560048036038101906101a09190612972565b610b84565b6040516101b796959493929190612feb565b60405180910390f35b6101da60048036038101906101d59190612c69565b610fab565b6040516101ec96959493929190612feb565b60405180910390f35b61020f600480360381019061020a9190612c69565b61138d565b604051610223989796959493929190613101565b60405180910390f35b61024660048036038101906102419190612972565b61179a565b6040516102539190612f5a565b60405180910390f35b61027660048036038101906102719190612972565b6117e5565b6040516102839190613290565b60405180910390f35b61029461182e565b6040516102a19190613290565b60405180910390f35b6102b2611834565b005b6102ce60048036038101906102c99190612972565b6118bc565b6040516102db9190613290565b60405180910390f35b6102fe60048036038101906102f99190612c69565b6118d4565b60405161030f959493929190612f75565b60405180910390f35b610332600480360381019061032d9190612aef565b611bb2565b60405161033f9190612f5a565b60405180910390f35b610362600480360381019061035d919061299f565b611edc565b60405161036f9190612f5a565b60405180910390f35b610380612192565b60405161038d9190612efb565b60405180910390f35b61039e6121bb565b6040516103ab9190613290565b60405180910390f35b6103bc612202565b6040516103c99190613290565b60405180910390f35b6103da612208565b6040516103e79190613290565b60405180910390f35b61040a60048036038101906104059190612972565b61220e565b005b61042660048036038101906104219190612c69565b612306565b6040516104339190612f38565b60405180910390f35b600080600460003373ffffffffffffffffffffffffffffffffffffffff1673ffffffffffffffffffffffffffffffffffffffff16815260200190815260200160002054146104bf576040517f08c379a00000000000000000000000000000000000000000000000000000000081526004016104b690613230565b60405180910390fd5b6000600180546104cf91906133bb565b905080600460003373ffffffffffffffffffffffffffffffffffffffff1673ffffffffffffffffffffffffffffffffffffffff1681526020019081526020016000208190555060006040518060c00160405280898152602001888152602001878152602001868152602001858152602001600067ffffffffffffffff81111561055b5761055a613611565b5b6040519080825280602002602001820160405280156105895781602001602082028036833780820191505090505b508152509050806005600084815260200190815260200160002060008201518160000190805190602001906105bf929190612735565b5060208201518160010190805190602001906105dc929190612735565b5060408201518160020190805190602001906105f9929190612735565b506060820151816003019080519060200190610616929190612735565b506080820151816004019080519060200190610633929190612735565b5060a08201518160050190805190602001906106509291906127bb565b50905050600160008154809291906106679061350e565b9190505550817f33c79442820bff70e679fb367a83f1207627b18198401ecaf8700a48ca9b9c6289898989896040516106a4959493929190612f75565b60405180910390a2819250505095945050505050565b6060806060806060806000871180156106d557506002548711155b610714576040517f08c379a000000000000000000000000000000000000000000000000000000000815260040161070b906131f0565b60405180910390fd5b60006006600089815260200190815260200160002060405180610100016040529081600082018054610745906134ab565b80601f0160208091040260200160405190810160405280929190818152602001828054610771906134ab565b80156107be5780601f10610793576101008083540402835291602001916107be565b820191906000526020600020905b8154815290600101906020018083116107a157829003601f168201915b505050505081526020016001820180546107d7906134ab565b80601f0160208091040260200160405190810160405280929190818152602001828054610803906134ab565b80156108505780601f1061082557610100808354040283529160200191610850565b820191906000526020600020905b81548152906001019060200180831161083357829003601f168201915b50505050508152602001600282018054610869906134ab565b80601f0160208091040260200160405190810160405280929190818152602001828054610895906134ab565b80156108e25780601f106108b7576101008083540402835291602001916108e2565b820191906000526020600020905b8154815290600101906020018083116108c557829003601f168201915b505050505081526020016003820180546108fb906134ab565b80601f0160208091040260200160405190810160405280929190818152602001828054610927906134ab565b80156109745780601f1061094957610100808354040283529160200191610974565b820191906000526020600020905b81548152906001019060200180831161095757829003601f168201915b5050505050815260200160048201805461098d906134ab565b80601f01602080910402602001604051908101604052809291908181526020018280546109b9906134ab565b8015610a065780601f106109db57610100808354040283529160200191610a06565b820191906000526020600020905b8154815290600101906020018083116109e957829003601f168201915b50505050508152602001600582018054610a1f906134ab565b80601f0160208091040260200160405190810160405280929190818152602001828054610a4b906134ab565b8015610a985780601f10610a6d57610100808354040283529160200191610a98565b820191906000526020600020905b815481529060010190602001808311610a7b57829003601f168201915b50505050508152602001600682018054610ab1906134ab565b80601f0160208091040260200160405190810160405280929190818152602001828054610add906134ab565b8015610b2a5780601f10610aff57610100808354040283529160200191610b2a565b820191906000526020600020905b815481529060010190602001808311610b0d57829003601f168201915b505050505081526020016007820160009054906101000a900460ff16151515158152505090508060000151816020015182608001518360a001518460c0015185606001519650965096509650965096505091939550919395565b6060806060806060806000600460008973ffffffffffffffffffffffffffffffffffffffff1673ffffffffffffffffffffffffffffffffffffffff168152602001908152602001600020549050600081118015610be357506001548111155b610c22576040517f08c379a0000000000000000000000000000000000000000000000000000000008152600401610c1990613250565b60405180910390fd5b6000600560008381526020019081526020016000206040518060c0016040529081600082018054610c52906134ab565b80601f0160208091040260200160405190810160405280929190818152602001828054610c7e906134ab565b8015610ccb5780601f10610ca057610100808354040283529160200191610ccb565b820191906000526020600020905b815481529060010190602001808311610cae57829003601f168201915b50505050508152602001600182018054610ce4906134ab565b80601f0160208091040260200160405190810160405280929190818152602001828054610d10906134ab565b8015610d5d5780601f10610d3257610100808354040283529160200191610d5d565b820191906000526020600020905b815481529060010190602001808311610d4057829003601f168201915b50505050508152602001600282018054610d76906134ab565b80601f0160208091040260200160405190810160405280929190818152602001828054610da2906134ab565b8015610def5780601f10610dc457610100808354040283529160200191610def565b820191906000526020600020905b815481529060010190602001808311610dd257829003601f168201915b50505050508152602001600382018054610e08906134ab565b80601f0160208091040260200160405190810160405280929190818152602001828054610e34906134ab565b8015610e815780601f10610e5657610100808354040283529160200191610e81565b820191906000526020600020905b815481529060010190602001808311610e6457829003601f168201915b50505050508152602001600482018054610e9a906134ab565b80601f0160208091040260200160405190810160405280929190818152602001828054610ec6906134ab565b8015610f135780601f10610ee857610100808354040283529160200191610f13565b820191906000526020600020905b815481529060010190602001808311610ef657829003601f168201915b5050505050815260200160058201805480602002602001604051908101604052809291908181526020018280548015610f6b57602002820191906000526020600020905b815481526020019060010190808311610f57575b5050505050815250509050806000015181602001518260400151836060015184608001518560a00151975097509750975097509750505091939550919395565b606080606080606080600087118015610fc657506001548711155b611005576040517f08c379a0000000000000000000000000000000000000000000000000000000008152600401610ffc90613250565b60405180910390fd5b6000600560008981526020019081526020016000206040518060c0016040529081600082018054611035906134ab565b80601f0160208091040260200160405190810160405280929190818152602001828054611061906134ab565b80156110ae5780601f10611083576101008083540402835291602001916110ae565b820191906000526020600020905b81548152906001019060200180831161109157829003601f168201915b505050505081526020016001820180546110c7906134ab565b80601f01602080910402602001604051908101604052809291908181526020018280546110f3906134ab565b80156111405780601f1061111557610100808354040283529160200191611140565b820191906000526020600020905b81548152906001019060200180831161112357829003601f168201915b50505050508152602001600282018054611159906134ab565b80601f0160208091040260200160405190810160405280929190818152602001828054611185906134ab565b80156111d25780601f106111a7576101008083540402835291602001916111d2565b820191906000526020600020905b8154815290600101906020018083116111b557829003601f168201915b505050505081526020016003820180546111eb906134ab565b80601f0160208091040260200160405190810160405280929190818152602001828054611217906134ab565b80156112645780601f1061123957610100808354040283529160200191611264565b820191906000526020600020905b81548152906001019060200180831161124757829003601f168201915b5050505050815260200160048201805461127d906134ab565b80601f01602080910402602001604051908101604052809291908181526020018280546112a9906134ab565b80156112f65780601f106112cb576101008083540402835291602001916112f6565b820191906000526020600020905b8154815290600101906020018083116112d957829003601f168201915b505050505081526020016005820180548060200260200160405190810160405280929190818152602001828054801561134e57602002820191906000526020600020905b81548152602001906001019080831161133a575b5050505050815250509050806000015181602001518260400151836060015184608001518560a001519650965096509650965096505091939550919395565b60066020528060005260406000206000915090508060000180546113b0906134ab565b80601f01602080910402602001604051908101604052809291908181526020018280546113dc906134ab565b80156114295780601f106113fe57610100808354040283529160200191611429565b820191906000526020600020905b81548152906001019060200180831161140c57829003601f168201915b50505050509080600101805461143e906134ab565b80601f016020809104026020016040519081016040528092919081815260200182805461146a906134ab565b80156114b75780601f1061148c576101008083540402835291602001916114b7565b820191906000526020600020905b81548152906001019060200180831161149a57829003601f168201915b5050505050908060020180546114cc906134ab565b80601f01602080910402602001604051908101604052809291908181526020018280546114f8906134ab565b80156115455780601f1061151a57610100808354040283529160200191611545565b820191906000526020600020905b81548152906001019060200180831161152857829003601f168201915b50505050509080600301805461155a906134ab565b80601f0160208091040260200160405190810160405280929190818152602001828054611586906134ab565b80156115d35780601f106115a8576101008083540402835291602001916115d3565b820191906000526020600020905b8154815290600101906020018083116115b657829003601f168201915b5050505050908060040180546115e8906134ab565b80601f0160208091040260200160405190810160405280929190818152602001828054611614906134ab565b80156116615780601f1061163657610100808354040283529160200191611661565b820191906000526020600020905b81548152906001019060200180831161164457829003601f168201915b505050505090806005018054611676906134ab565b80601f01602080910402602001604051908101604052809291908181526020018280546116a2906134ab565b80156116ef5780601f106116c4576101008083540402835291602001916116ef565b820191906000526020600020905b8154815290600101906020018083116116d257829003601f168201915b505050505090806006018054611704906134ab565b80601f0160208091040260200160405190810160405280929190818152602001828054611730906134ab565b801561177d5780601f106117525761010080835404028352916020019161177d565b820191906000526020600020905b81548152906001019060200180831161176057829003601f168201915b5050505050908060070160009054906101000a900460ff16905088565b600080600460008473ffffffffffffffffffffffffffffffffffffffff1673ffffffffffffffffffffffffffffffffffffffff16815260200190815260200160002054119050919050565b6000600460008373ffffffffffffffffffffffffffffffffffffffff1673ffffffffffffffffffffffffffffffffffffffff168152602001908152602001600020549050919050565b60015481565b61183c612669565b73ffffffffffffffffffffffffffffffffffffffff1661185a612192565b73ffffffffffffffffffffffffffffffffffffffff16146118b0576040517f08c379a00000000000000000000000000000000000000000000000000000000081526004016118a790613210565b60405180910390fd5b6118ba6000612671565b565b60046020528060005260406000206000915090505481565b60056020528060005260406000206000915090508060000180546118f7906134ab565b80601f0160208091040260200160405190810160405280929190818152602001828054611923906134ab565b80156119705780601f1061194557610100808354040283529160200191611970565b820191906000526020600020905b81548152906001019060200180831161195357829003601f168201915b505050505090806001018054611985906134ab565b80601f01602080910402602001604051908101604052809291908181526020018280546119b1906134ab565b80156119fe5780601f106119d3576101008083540402835291602001916119fe565b820191906000526020600020905b8154815290600101906020018083116119e157829003601f168201915b505050505090806002018054611a13906134ab565b80601f0160208091040260200160405190810160405280929190818152602001828054611a3f906134ab565b8015611a8c5780601f10611a6157610100808354040283529160200191611a8c565b820191906000526020600020905b815481529060010190602001808311611a6f57829003601f168201915b505050505090806003018054611aa1906134ab565b80601f0160208091040260200160405190810160405280929190818152602001828054611acd906134ab565b8015611b1a5780601f10611aef57610100808354040283529160200191611b1a565b820191906000526020600020905b815481529060010190602001808311611afd57829003601f168201915b505050505090806004018054611b2f906134ab565b80601f0160208091040260200160405190810160405280929190818152602001828054611b5b906134ab565b8015611ba85780601f10611b7d57610100808354040283529160200191611ba8565b820191906000526020600020905b815481529060010190602001808311611b8b57829003601f168201915b5050505050905085565b600080600460003373ffffffffffffffffffffffffffffffffffffffff1673ffffffffffffffffffffffffffffffffffffffff16815260200190815260200160002054118015611c435750600154600460003373ffffffffffffffffffffffffffffffffffffffff1673ffffffffffffffffffffffffffffffffffffffff1681526020019081526020016000205411155b611c82576040517f08c379a0000000000000000000000000000000000000000000000000000000008152600401611c7990613270565b60405180910390fd5b6000600460003373ffffffffffffffffffffffffffffffffffffffff1673ffffffffffffffffffffffffffffffffffffffff168152602001908152602001600020549050600060056000838152602001908152602001600020905060006001600254611cee91906133bb565b905060006040518061010001604052808e81526020018d81526020018b81526020018881526020018c81526020018a8152602001898152602001871515815250905080600660008481526020019081526020016000206000820151816000019080519060200190611d60929190612735565b506020820151816001019080519060200190611d7d929190612735565b506040820151816002019080519060200190611d9a929190612735565b506060820151816003019080519060200190611db7929190612735565b506080820151816004019080519060200190611dd4929190612735565b5060a0820151816005019080519060200190611df1929190612735565b5060c0820151816006019080519060200190611e0e929190612735565b5060e08201518160070160006101000a81548160ff0219169083151502179055509050508260050182908060018154018082558091505060019003906000526020600020016000909190919091505560026000815480929190611e709061350e565b919050555081847f01a01fbca88702fbfa390f3ae96229cf64dbfab947835c5446581c0da3c5bd5c8f8f8f8f8d8860a001518960c001518a60e00151604051611ec0989796959493929190613101565b60405180910390a3600194505050505098975050505050505050565b600080600460003373ffffffffffffffffffffffffffffffffffffffff1673ffffffffffffffffffffffffffffffffffffffff16815260200190815260200160002054118015611f6d5750600154600460003373ffffffffffffffffffffffffffffffffffffffff1673ffffffffffffffffffffffffffffffffffffffff1681526020019081526020016000205411155b611fac576040517f08c379a0000000000000000000000000000000000000000000000000000000008152600401611fa390613270565b60405180910390fd5b6000600460003373ffffffffffffffffffffffffffffffffffffffff1673ffffffffffffffffffffffffffffffffffffffff16815260200190815260200160002054905060008111801561200257506001548111155b612041576040517f08c379a0000000000000000000000000000000000000000000000000000000008152600401612038906131d0565b60405180910390fd5b60005b83518163ffffffff16101561214f5760008060046000878563ffffffff1681518110612073576120726135e2565b5b602002602001015173ffffffffffffffffffffffffffffffffffffffff1673ffffffffffffffffffffffffffffffffffffffff168152602001908152602001600020541190508061213b578260046000878563ffffffff16815181106120dc576120db6135e2565b5b602002602001015173ffffffffffffffffffffffffffffffffffffffff1673ffffffffffffffffffffffffffffffffffffffff16815260200190815260200160002081905550600360008154809291906121359061350e565b91905055505b50808061214790613557565b915050612044565b50807f8a0c6825467ff556effbebfe0914ed79ec1cf62663db6aa192c3a60227814ce5846040516121809190612f16565b60405180910390a26001915050919050565b60008060009054906101000a900473ffffffffffffffffffffffffffffffffffffffff16905090565b6000600460003373ffffffffffffffffffffffffffffffffffffffff1673ffffffffffffffffffffffffffffffffffffffff16815260200190815260200160002054905090565b60025481565b60035481565b612216612669565b73ffffffffffffffffffffffffffffffffffffffff16612234612192565b73ffffffffffffffffffffffffffffffffffffffff161461228a576040517f08c379a000000000000000000000000000000000000000000000000000000000815260040161228190613210565b60405180910390fd5b600073ffffffffffffffffffffffffffffffffffffffff168173ffffffffffffffffffffffffffffffffffffffff1614156122fa576040517f08c379a00000000000000000000000000000000000000000000000000000000081526004016122f1906131b0565b60405180910390fd5b61230381612671565b50565b60606000600560008481526020019081526020016000206040518060c0016040529081600082018054612338906134ab565b80601f0160208091040260200160405190810160405280929190818152602001828054612364906134ab565b80156123b15780601f10612386576101008083540402835291602001916123b1565b820191906000526020600020905b81548152906001019060200180831161239457829003601f168201915b505050505081526020016001820180546123ca906134ab565b80601f01602080910402602001604051908101604052809291908181526020018280546123f6906134ab565b80156124435780601f1061241857610100808354040283529160200191612443565b820191906000526020600020905b81548152906001019060200180831161242657829003601f168201915b5050505050815260200160028201805461245c906134ab565b80601f0160208091040260200160405190810160405280929190818152602001828054612488906134ab565b80156124d55780601f106124aa576101008083540402835291602001916124d5565b820191906000526020600020905b8154815290600101906020018083116124b857829003601f168201915b505050505081526020016003820180546124ee906134ab565b80601f016020809104026020016040519081016040528092919081815260200182805461251a906134ab565b80156125675780601f1061253c57610100808354040283529160200191612567565b820191906000526020600020905b81548152906001019060200180831161254a57829003601f168201915b50505050508152602001600482018054612580906134ab565b80601f01602080910402602001604051908101604052809291908181526020018280546125ac906134ab565b80156125f95780601f106125ce576101008083540402835291602001916125f9565b820191906000526020600020905b8154815290600101906020018083116125dc57829003601f168201915b505050505081526020016005820180548060200260200160405190810160405280929190818152602001828054801561265157602002820191906000526020600020905b81548152602001906001019080831161263d575b50505050508152505090508060a00151915050919050565b600033905090565b60008060009054906101000a900473ffffffffffffffffffffffffffffffffffffffff169050816000806101000a81548173ffffffffffffffffffffffffffffffffffffffff021916908373ffffffffffffffffffffffffffffffffffffffff1602179055508173ffffffffffffffffffffffffffffffffffffffff168173ffffffffffffffffffffffffffffffffffffffff167f8be0079c531659141344cd1fd0a4f28419497f9722a3daafe3b4186f6b6457e060405160405180910390a35050565b828054612741906134ab565b90600052602060002090601f01602090048101928261276357600085556127aa565b82601f1061277c57805160ff19168380011785556127aa565b828001600101855582156127aa579182015b828111156127a957825182559160200191906001019061278e565b5b5090506127b79190612808565b5090565b8280548282559060005260206000209081019282156127f7579160200282015b828111156127f65782518255916020019190600101906127db565b5b5090506128049190612808565b5090565b5b80821115612821576000816000905550600101612809565b5090565b6000612838612833846132d0565b6132ab565b9050808382526020820190508285602086028201111561285b5761285a613645565b5b60005b8581101561288b578161287188826128d7565b84526020840193506020830192505060018101905061285e565b5050509392505050565b60006128a86128a3846132fc565b6132ab565b9050828152602081018484840111156128c4576128c361364a565b5b6128cf848285613469565b509392505050565b6000813590506128e6816137af565b92915050565b600082601f83011261290157612900613640565b5b8135612911848260208601612825565b91505092915050565b600081359050612929816137c6565b92915050565b600082601f83011261294457612943613640565b5b8135612954848260208601612895565b91505092915050565b60008135905061296c816137dd565b92915050565b60006020828403121561298857612987613654565b5b6000612996848285016128d7565b91505092915050565b6000602082840312156129b5576129b4613654565b5b600082013567ffffffffffffffff8111156129d3576129d261364f565b5b6129df848285016128ec565b91505092915050565b600080600080600060a08688031215612a0457612a03613654565b5b600086013567ffffffffffffffff811115612a2257612a2161364f565b5b612a2e8882890161292f565b955050602086013567ffffffffffffffff811115612a4f57612a4e61364f565b5b612a5b8882890161292f565b945050604086013567ffffffffffffffff811115612a7c57612a7b61364f565b5b612a888882890161292f565b935050606086013567ffffffffffffffff811115612aa957612aa861364f565b5b612ab58882890161292f565b925050608086013567ffffffffffffffff811115612ad657612ad561364f565b5b612ae28882890161292f565b9150509295509295909350565b600080600080600080600080610100898b031215612b1057612b0f613654565b5b600089013567ffffffffffffffff811115612b2e57612b2d61364f565b5b612b3a8b828c0161292f565b985050602089013567ffffffffffffffff811115612b5b57612b5a61364f565b5b612b678b828c0161292f565b975050604089013567ffffffffffffffff811115612b8857612b8761364f565b5b612b948b828c0161292f565b965050606089013567ffffffffffffffff811115612bb557612bb461364f565b5b612bc18b828c0161292f565b955050608089013567ffffffffffffffff811115612be257612be161364f565b5b612bee8b828c0161292f565b94505060a089013567ffffffffffffffff811115612c0f57612c0e61364f565b5b612c1b8b828c0161292f565b93505060c089013567ffffffffffffffff811115612c3c57612c3b61364f565b5b612c488b828c0161292f565b92505060e0612c598b828c0161291a565b9150509295985092959890939650565b600060208284031215612c7f57612c7e613654565b5b6000612c8d8482850161295d565b91505092915050565b6000612ca28383612cc6565b60208301905092915050565b6000612cba8383612edd565b60208301905092915050565b612ccf81613411565b82525050565b612cde81613411565b82525050565b6000612cef8261334d565b612cf98185613388565b9350612d048361332d565b8060005b83811015612d35578151612d1c8882612c96565b9750612d278361336e565b925050600181019050612d08565b5085935050505092915050565b6000612d4d82613358565b612d578185613399565b9350612d628361333d565b8060005b83811015612d93578151612d7a8882612cae565b9750612d858361337b565b925050600181019050612d66565b5085935050505092915050565b612da981613423565b82525050565b6000612dba82613363565b612dc481856133aa565b9350612dd4818560208601613478565b612ddd81613659565b840191505092915050565b6000612df56026836133aa565b9150612e008261366a565b604082019050919050565b6000612e186015836133aa565b9150612e23826136b9565b602082019050919050565b6000612e3b6017836133aa565b9150612e46826136e2565b602082019050919050565b6000612e5e6020836133aa565b9150612e698261370b565b602082019050919050565b6000612e816018836133aa565b9150612e8c82613734565b602082019050919050565b6000612ea46015836133aa565b9150612eaf8261375d565b602082019050919050565b6000612ec76017836133aa565b9150612ed282613786565b602082019050919050565b612ee68161344f565b82525050565b612ef58161344f565b82525050565b6000602082019050612f106000830184612cd5565b92915050565b60006020820190508181036000830152612f308184612ce4565b905092915050565b60006020820190508181036000830152612f528184612d42565b905092915050565b6000602082019050612f6f6000830184612da0565b92915050565b600060a0820190508181036000830152612f8f8188612daf565b90508181036020830152612fa38187612daf565b90508181036040830152612fb78186612daf565b90508181036060830152612fcb8185612daf565b90508181036080830152612fdf8184612daf565b90509695505050505050565b600060c08201905081810360008301526130058189612daf565b905081810360208301526130198188612daf565b9050818103604083015261302d8187612daf565b905081810360608301526130418186612daf565b905081810360808301526130558185612daf565b905081810360a08301526130698184612d42565b9050979650505050505050565b600060c08201905081810360008301526130908189612daf565b905081810360208301526130a48188612daf565b905081810360408301526130b88187612daf565b905081810360608301526130cc8186612daf565b905081810360808301526130e08185612daf565b905081810360a08301526130f48184612daf565b9050979650505050505050565b600061010082019050818103600083015261311c818b612daf565b90508181036020830152613130818a612daf565b905081810360408301526131448189612daf565b905081810360608301526131588188612daf565b9050818103608083015261316c8187612daf565b905081810360a08301526131808186612daf565b905081810360c08301526131948185612daf565b90506131a360e0830184612da0565b9998505050505050505050565b600060208201905081810360008301526131c981612de8565b9050919050565b600060208201905081810360008301526131e981612e0b565b9050919050565b6000602082019050818103600083015261320981612e2e565b9050919050565b6000602082019050818103600083015261322981612e51565b9050919050565b6000602082019050818103600083015261324981612e74565b9050919050565b6000602082019050818103600083015261326981612e97565b9050919050565b6000602082019050818103600083015261328981612eba565b9050919050565b60006020820190506132a56000830184612eec565b92915050565b60006132b56132c6565b90506132c182826134dd565b919050565b6000604051905090565b600067ffffffffffffffff8211156132eb576132ea613611565b5b602082029050602081019050919050565b600067ffffffffffffffff82111561331757613316613611565b5b61332082613659565b9050602081019050919050565b6000819050602082019050919050565b6000819050602082019050919050565b600081519050919050565b600081519050919050565b600081519050919050565b6000602082019050919050565b6000602082019050919050565b600082825260208201905092915050565b600082825260208201905092915050565b600082825260208201905092915050565b60006133c68261344f565b91506133d18361344f565b9250827fffffffffffffffffffffffffffffffffffffffffffffffffffffffffffffffff0382111561340657613405613584565b5b828201905092915050565b600061341c8261342f565b9050919050565b60008115159050919050565b600073ffffffffffffffffffffffffffffffffffffffff82169050919050565b6000819050919050565b600063ffffffff82169050919050565b82818337600083830152505050565b60005b8381101561349657808201518184015260208101905061347b565b838111156134a5576000848401525b50505050565b600060028204905060018216806134c357607f821691505b602082108114156134d7576134d66135b3565b5b50919050565b6134e682613659565b810181811067ffffffffffffffff8211171561350557613504613611565b5b80604052505050565b60006135198261344f565b91507fffffffffffffffffffffffffffffffffffffffffffffffffffffffffffffffff82141561354c5761354b613584565b5b600182019050919050565b600061356282613459565b915063ffffffff82141561357957613578613584565b5b600182019050919050565b7f4e487b7100000000000000000000000000000000000000000000000000000000600052601160045260246000fd5b7f4e487b7100000000000000000000000000000000000000000000000000000000600052602260045260246000fd5b7f4e487b7100000000000000000000000000000000000000000000000000000000600052603260045260246000fd5b7f4e487b7100000000000000000000000000000000000000000000000000000000600052604160045260246000fd5b600080fd5b600080fd5b600080fd5b600080fd5b600080fd5b6000601f19601f8301169050919050565b7f4f776e61626c653a206e6577206f776e657220697320746865207a65726f206160008201527f6464726573730000000000000000000000000000000000000000000000000000602082015250565b7f4e6f7420612076616c6964204176617461722049440000000000000000000000600082015250565b7f4d6574614c696e6b20646f6573206e6f74206578697374000000000000000000600082015250565b7f4f776e61626c653a2063616c6c6572206973206e6f7420746865206f776e6572600082015250565b7f596f752061726520616c72656164792061206d656d6265720000000000000000600082015250565b7f41766174617220646f6573206e6f742065786973740000000000000000000000600082015250565b7f596f75206861766520746f2062652061206d656d626572000000000000000000600082015250565b6137b881613411565b81146137c357600080fd5b50565b6137cf81613423565b81146137da57600080fd5b50565b6137e68161344f565b81146137f157600080fd5b5056fea2646970667358221220538da1e51886ddf0f326201604731e9d3ee60b791e2418e9974ade4a9c89cb6664736f6c63430008070033",
  "linkReferences": {},
  "deployedLinkReferences": {}
}