{
  "_format": "hh-sol-artifact-1",
  "contractName": "MetaLinks",
  "sourceName": "contracts/MetaLinks.sol",
  "abi": [
    {
      "inputs": [],
      "stateMutability": "nonpayable",
      "type": "constructor"
    },
    {
      "anonymous": false,
      "inputs": [
        {
          "indexed": true,
          "internalType": "uint256",
          "name": "id",
          "type": "uint256"
        },
        {
          "indexed": true,
          "internalType": "address[]",
          "name": "newAddresses",
          "type": "address[]"
        }
      ],
      "name": "AvatarAddressAdded",
      "type": "event"
    },
    {
      "anonymous": false,
      "inputs": [
        {
          "indexed": true,
          "internalType": "uint256",
          "name": "avatarID",
          "type": "uint256"
        },
        {
          "indexed": true,
          "internalType": "string",
          "name": "name",
          "type": "string"
        },
        {
          "indexed": true,
          "internalType": "string",
          "name": "aka",
          "type": "string"
        },
        {
          "indexed": false,
          "internalType": "string",
          "name": "bio",
          "type": "string"
        },
        {
          "indexed": false,
          "internalType": "string",
          "name": "avatar",
          "type": "string"
        },
        {
          "indexed": false,
          "internalType": "string",
          "name": "bgAvatar",
          "type": "string"
        }
      ],
      "name": "AvatarCreated",
      "type": "event"
    },
    {
      "anonymous": false,
      "inputs": [
        {
          "indexed": true,
          "internalType": "uint256",
          "name": "avatarID",
          "type": "uint256"
        },
        {
          "indexed": true,
          "internalType": "uint256",
          "name": "newMetaLinkID",
          "type": "uint256"
        },
        {
          "indexed": true,
          "internalType": "string",
          "name": "name",
          "type": "string"
        },
        {
          "indexed": false,
          "internalType": "string",
          "name": "aka",
          "type": "string"
        },
        {
          "indexed": false,
          "internalType": "string",
          "name": "bio",
          "type": "string"
        },
        {
          "indexed": false,
          "internalType": "string",
          "name": "universe",
          "type": "string"
        },
        {
          "indexed": false,
          "internalType": "string",
          "name": "link",
          "type": "string"
        },
        {
          "indexed": false,
          "internalType": "string",
          "name": "avatar",
          "type": "string"
        },
        {
          "indexed": false,
          "internalType": "string",
          "name": "bgAvatar",
          "type": "string"
        },
        {
          "indexed": false,
          "internalType": "bool",
          "name": "active",
          "type": "bool"
        }
      ],
      "name": "MetaLinkAdded",
      "type": "event"
    },
    {
      "anonymous": false,
      "inputs": [
        {
          "indexed": true,
          "internalType": "address",
          "name": "previousOwner",
          "type": "address"
        },
        {
          "indexed": true,
          "internalType": "address",
          "name": "newOwner",
          "type": "address"
        }
      ],
      "name": "OwnershipTransferred",
      "type": "event"
    },
    {
      "inputs": [
        {
          "internalType": "address[]",
          "name": "addresses",
          "type": "address[]"
        }
      ],
      "name": "addAvatarAddress",
      "outputs": [
        {
          "internalType": "bool",
          "name": "",
          "type": "bool"
        }
      ],
      "stateMutability": "nonpayable",
      "type": "function"
    },
    {
      "inputs": [
        {
          "internalType": "string",
          "name": "_name",
          "type": "string"
        },
        {
          "internalType": "string",
          "name": "_aka",
          "type": "string"
        },
        {
          "internalType": "string",
          "name": "_universe",
          "type": "string"
        },
        {
          "internalType": "string",
          "name": "_avatar",
          "type": "string"
        },
        {
          "internalType": "string",
          "name": "_bg_avatar",
          "type": "string"
        },
        {
          "internalType": "string",
          "name": "_link",
          "type": "string"
        },
        {
          "internalType": "string",
          "name": "_bio",
          "type": "string"
        },
        {
          "internalType": "bool",
          "name": "_active",
          "type": "bool"
        }
      ],
      "name": "addMetaLinkMetalink",
      "outputs": [
        {
          "internalType": "bool",
          "name": "",
          "type": "bool"
        }
      ],
      "stateMutability": "nonpayable",
      "type": "function"
    },
    {
      "inputs": [
        {
          "internalType": "address",
          "name": "",
          "type": "address"
        }
      ],
      "name": "addressesToMID",
      "outputs": [
        {
          "internalType": "uint256",
          "name": "",
          "type": "uint256"
        }
      ],
      "stateMutability": "view",
      "type": "function"
    },
    {
      "inputs": [
        {
          "internalType": "string",
          "name": "_name",
          "type": "string"
        },
        {
          "internalType": "string",
          "name": "_aka",
          "type": "string"
        },
        {
          "internalType": "string",
          "name": "_bio",
          "type": "string"
        },
        {
          "internalType": "string",
          "name": "_avatar",
          "type": "string"
        },
        {
          "internalType": "string",
          "name": "_bg_avatar",
          "type": "string"
        }
      ],
      "name": "createAvatar",
      "outputs": [
        {
          "internalType": "uint256",
          "name": "",
          "type": "uint256"
        }
      ],
      "stateMutability": "nonpayable",
      "type": "function"
    },
    {
      "inputs": [
        {
          "internalType": "uint256",
          "name": "id",
          "type": "uint256"
        }
      ],
      "name": "getAvatar",
      "outputs": [
        {
          "internalType": "string",
          "name": "",
          "type": "string"
        },
        {
          "internalType": "string",
          "name": "",
          "type": "string"
        },
        {
          "internalType": "string",
          "name": "",
          "type": "string"
        },
        {
          "internalType": "string",
          "name": "",
          "type": "string"
        },
        {
          "internalType": "uint256[]",
          "name": "links",
          "type": "uint256[]"
        }
      ],
      "stateMutability": "view",
      "type": "function"
    },
    {
      "inputs": [
        {
          "internalType": "address",
          "name": "addrss",
          "type": "address"
        }
      ],
      "name": "getAvatarID",
      "outputs": [
        {
          "internalType": "uint256",
          "name": "",
          "type": "uint256"
        }
      ],
      "stateMutability": "view",
      "type": "function"
    },
    {
      "inputs": [],
      "name": "getMyAvatarID",
      "outputs": [
        {
          "internalType": "uint256",
          "name": "",
          "type": "uint256"
        }
      ],
      "stateMutability": "view",
      "type": "function"
    },
    {
      "inputs": [
        {
          "internalType": "uint256",
          "name": "",
          "type": "uint256"
        }
      ],
      "name": "midsToAvatars",
      "outputs": [
        {
          "internalType": "string",
          "name": "name",
          "type": "string"
        },
        {
          "internalType": "string",
          "name": "aka",
          "type": "string"
        },
        {
          "internalType": "string",
          "name": "bio",
          "type": "string"
        },
        {
          "internalType": "string",
          "name": "avatar",
          "type": "string"
        },
        {
          "internalType": "string",
          "name": "bg_avatar",
          "type": "string"
        }
      ],
      "stateMutability": "view",
      "type": "function"
    },
    {
      "inputs": [
        {
          "internalType": "uint256",
          "name": "",
          "type": "uint256"
        }
      ],
      "name": "midsToMetaLinks",
      "outputs": [
        {
          "internalType": "string",
          "name": "name",
          "type": "string"
        },
        {
          "internalType": "string",
          "name": "aka",
          "type": "string"
        },
        {
          "internalType": "string",
          "name": "universe",
          "type": "string"
        },
        {
          "internalType": "string",
          "name": "link",
          "type": "string"
        },
        {
          "internalType": "string",
          "name": "bio",
          "type": "string"
        },
        {
          "internalType": "string",
          "name": "avatar",
          "type": "string"
        },
        {
          "internalType": "string",
          "name": "bg_avatar",
          "type": "string"
        },
        {
          "internalType": "bool",
          "name": "active",
          "type": "bool"
        }
      ],
      "stateMutability": "view",
      "type": "function"
    },
    {
      "inputs": [],
      "name": "owner",
      "outputs": [
        {
          "internalType": "address",
          "name": "",
          "type": "address"
        }
      ],
      "stateMutability": "view",
      "type": "function"
    },
    {
      "inputs": [],
      "name": "renounceOwnership",
      "outputs": [],
      "stateMutability": "nonpayable",
      "type": "function"
    },
    {
      "inputs": [],
      "name": "totalAvatars",
      "outputs": [
        {
          "internalType": "uint256",
          "name": "",
          "type": "uint256"
        }
      ],
      "stateMutability": "view",
      "type": "function"
    },
    {
      "inputs": [],
      "name": "totalMetaLinks",
      "outputs": [
        {
          "internalType": "uint256",
          "name": "",
          "type": "uint256"
        }
      ],
      "stateMutability": "view",
      "type": "function"
    },
    {
      "inputs": [
        {
          "internalType": "address",
          "name": "newOwner",
          "type": "address"
        }
      ],
      "name": "transferOwnership",
      "outputs": [],
      "stateMutability": "nonpayable",
      "type": "function"
    }
  ],
  "bytecode": "0x60806040523480156200001157600080fd5b5062000032620000266200003860201b60201c565b6200004060201b60201c565b62000104565b600033905090565b60008060009054906101000a900473ffffffffffffffffffffffffffffffffffffffff169050816000806101000a81548173ffffffffffffffffffffffffffffffffffffffff021916908373ffffffffffffffffffffffffffffffffffffffff1602179055508173ffffffffffffffffffffffffffffffffffffffff168173ffffffffffffffffffffffffffffffffffffffff167f8be0079c531659141344cd1fd0a4f28419497f9722a3daafe3b4186f6b6457e060405160405180910390a35050565b61283d80620001146000396000f3fe608060405234801561001057600080fd5b50600436106100ea5760003560e01c8063787ee8151161008c5780638da5cb5b116100665780638da5cb5b146102a6578063b48375e4146102c4578063baea526f146102e2578063f2fde38b14610300576100ea565b8063787ee815146102125780637a2b87121461024257806386e7e49214610276576100ea565b806352cfbb43116100c857806352cfbb43146101835780635a4f0b2f146101ba5780636ac156db146101ea578063715018a614610208576100ea565b8063013808aa146100ef5780631328ec9b1461011f578063231cfdb714610153575b600080fd5b61010960048036038101906101049190611ada565b61031c565b6040516101169190612319565b60405180910390f35b61013960048036038101906101349190611d5b565b6105c2565b60405161014a959493929190612065565b60405180910390f35b61016d60048036038101906101689190611be1565b61094b565b60405161017a9190611ffe565b60405180910390f35b61019d60048036038101906101989190611d5b565b610c75565b6040516101b19897969594939291906121ea565b60405180910390f35b6101d460048036038101906101cf9190611a64565b611082565b6040516101e19190612319565b60405180910390f35b6101f26110cb565b6040516101ff9190612319565b60405180910390f35b6102106110d1565b005b61022c60048036038101906102279190611a64565b611159565b6040516102399190612319565b60405180910390f35b61025c60048036038101906102579190611d5b565b611171565b60405161026d9594939291906120db565b60405180910390f35b610290600480360381019061028b9190611a91565b61144f565b60405161029d9190611ffe565b60405180910390f35b6102ae6115ed565b6040516102bb9190611fe3565b60405180910390f35b6102cc611616565b6040516102d99190612319565b60405180910390f35b6102ea61165d565b6040516102f79190612319565b60405180910390f35b61031a60048036038101906103159190611a64565b611663565b005b600080600360003373ffffffffffffffffffffffffffffffffffffffff1673ffffffffffffffffffffffffffffffffffffffff168152602001908152602001600020541461039f576040517f08c379a0000000000000000000000000000000000000000000000000000000008152600401610396906122d9565b60405180910390fd5b6000600180546103af9190612449565b905080600360003373ffffffffffffffffffffffffffffffffffffffff1673ffffffffffffffffffffffffffffffffffffffff1681526020019081526020016000208190555060006040518060c00160405280898152602001888152602001878152602001868152602001858152602001600067ffffffffffffffff81111561043b5761043a61269f565b5b6040519080825280602002602001820160405280156104695781602001602082028036833780820191505090505b5081525090508060046000848152602001908152602001600020600082015181600001908051906020019061049f929190611827565b5060208201518160010190805190602001906104bc929190611827565b5060408201518160020190805190602001906104d9929190611827565b5060608201518160030190805190602001906104f6929190611827565b506080820151816004019080519060200190610513929190611827565b5060a08201518160050190805190602001906105309291906118ad565b50905050600160008154809291906105479061259c565b91905055508660405161055a9190611fcc565b6040518091039020886040516105709190611fcc565b6040518091039020837f33c79442820bff70e679fb367a83f1207627b18198401ecaf8700a48ca9b9c628989896040516105ac93929190612019565b60405180910390a4819250505095945050505050565b60608060608060606000600460008881526020019081526020016000206040518060c00160405290816000820180546105fa90612539565b80601f016020809104026020016040519081016040528092919081815260200182805461062690612539565b80156106735780601f1061064857610100808354040283529160200191610673565b820191906000526020600020905b81548152906001019060200180831161065657829003601f168201915b5050505050815260200160018201805461068c90612539565b80601f01602080910402602001604051908101604052809291908181526020018280546106b890612539565b80156107055780601f106106da57610100808354040283529160200191610705565b820191906000526020600020905b8154815290600101906020018083116106e857829003601f168201915b5050505050815260200160028201805461071e90612539565b80601f016020809104026020016040519081016040528092919081815260200182805461074a90612539565b80156107975780601f1061076c57610100808354040283529160200191610797565b820191906000526020600020905b81548152906001019060200180831161077a57829003601f168201915b505050505081526020016003820180546107b090612539565b80601f01602080910402602001604051908101604052809291908181526020018280546107dc90612539565b80156108295780601f106107fe57610100808354040283529160200191610829565b820191906000526020600020905b81548152906001019060200180831161080c57829003601f168201915b5050505050815260200160048201805461084290612539565b80601f016020809104026020016040519081016040528092919081815260200182805461086e90612539565b80156108bb5780601f10610890576101008083540402835291602001916108bb565b820191906000526020600020905b81548152906001019060200180831161089e57829003601f168201915b505050505081526020016005820180548060200260200160405190810160405280929190818152602001828054801561091357602002820191906000526020600020905b8154815260200190600101908083116108ff575b505050505081525050905080600001518160200151826040015183606001518460a00151955095509550955095505091939590929450565b600080600360003373ffffffffffffffffffffffffffffffffffffffff1673ffffffffffffffffffffffffffffffffffffffff16815260200190815260200160002054116109ce576040517f08c379a00000000000000000000000000000000000000000000000000000000081526004016109c5906122f9565b60405180910390fd5b600060046000600360003373ffffffffffffffffffffffffffffffffffffffff1673ffffffffffffffffffffffffffffffffffffffff168152602001908152602001600020548152602001908152602001600020905060006001600254610a359190612449565b905060006040518061010001604052808d81526020018c81526020018b81526020018881526020018781526020018a8152602001898152602001861515815250905080600560008481526020019081526020016000206000820151816000019080519060200190610aa7929190611827565b506020820151816001019080519060200190610ac4929190611827565b506040820151816002019080519060200190610ae1929190611827565b506060820151816003019080519060200190610afe929190611827565b506080820151816004019080519060200190610b1b929190611827565b5060a0820151816005019080519060200190610b38929190611827565b5060c0820151816006019080519060200190610b55929190611827565b5060e08201518160070160006101000a81548160ff0219169083151502179055509050508260050182908060018154018082558091505060019003906000526020600020016000909190919091505560026000815480929190610bb79061259c565b91905055508b604051610bca9190611fcc565b6040518091039020600360003373ffffffffffffffffffffffffffffffffffffffff1673ffffffffffffffffffffffffffffffffffffffff16815260200190815260200160002054837f01a01fbca88702fbfa390f3ae96229cf64dbfab947835c5446581c0da3c5bd5c8e8a8f8d8860a001518960c001518a60e00151604051610c5a9796959493929190612151565b60405180910390a46001935050505098975050505050505050565b6005602052806000526040600020600091509050806000018054610c9890612539565b80601f0160208091040260200160405190810160405280929190818152602001828054610cc490612539565b8015610d115780601f10610ce657610100808354040283529160200191610d11565b820191906000526020600020905b815481529060010190602001808311610cf457829003601f168201915b505050505090806001018054610d2690612539565b80601f0160208091040260200160405190810160405280929190818152602001828054610d5290612539565b8015610d9f5780601f10610d7457610100808354040283529160200191610d9f565b820191906000526020600020905b815481529060010190602001808311610d8257829003601f168201915b505050505090806002018054610db490612539565b80601f0160208091040260200160405190810160405280929190818152602001828054610de090612539565b8015610e2d5780601f10610e0257610100808354040283529160200191610e2d565b820191906000526020600020905b815481529060010190602001808311610e1057829003601f168201915b505050505090806003018054610e4290612539565b80601f0160208091040260200160405190810160405280929190818152602001828054610e6e90612539565b8015610ebb5780601f10610e9057610100808354040283529160200191610ebb565b820191906000526020600020905b815481529060010190602001808311610e9e57829003601f168201915b505050505090806004018054610ed090612539565b80601f0160208091040260200160405190810160405280929190818152602001828054610efc90612539565b8015610f495780601f10610f1e57610100808354040283529160200191610f49565b820191906000526020600020905b815481529060010190602001808311610f2c57829003601f168201915b505050505090806005018054610f5e90612539565b80601f0160208091040260200160405190810160405280929190818152602001828054610f8a90612539565b8015610fd75780601f10610fac57610100808354040283529160200191610fd7565b820191906000526020600020905b815481529060010190602001808311610fba57829003601f168201915b505050505090806006018054610fec90612539565b80601f016020809104026020016040519081016040528092919081815260200182805461101890612539565b80156110655780601f1061103a57610100808354040283529160200191611065565b820191906000526020600020905b81548152906001019060200180831161104857829003601f168201915b5050505050908060070160009054906101000a900460ff16905088565b6000600360008373ffffffffffffffffffffffffffffffffffffffff1673ffffffffffffffffffffffffffffffffffffffff168152602001908152602001600020549050919050565b60015481565b6110d961175b565b73ffffffffffffffffffffffffffffffffffffffff166110f76115ed565b73ffffffffffffffffffffffffffffffffffffffff161461114d576040517f08c379a0000000000000000000000000000000000000000000000000000000008152600401611144906122b9565b60405180910390fd5b6111576000611763565b565b60036020528060005260406000206000915090505481565b600460205280600052604060002060009150905080600001805461119490612539565b80601f01602080910402602001604051908101604052809291908181526020018280546111c090612539565b801561120d5780601f106111e25761010080835404028352916020019161120d565b820191906000526020600020905b8154815290600101906020018083116111f057829003601f168201915b50505050509080600101805461122290612539565b80601f016020809104026020016040519081016040528092919081815260200182805461124e90612539565b801561129b5780601f106112705761010080835404028352916020019161129b565b820191906000526020600020905b81548152906001019060200180831161127e57829003601f168201915b5050505050908060020180546112b090612539565b80601f01602080910402602001604051908101604052809291908181526020018280546112dc90612539565b80156113295780601f106112fe57610100808354040283529160200191611329565b820191906000526020600020905b81548152906001019060200180831161130c57829003601f168201915b50505050509080600301805461133e90612539565b80601f016020809104026020016040519081016040528092919081815260200182805461136a90612539565b80156113b75780601f1061138c576101008083540402835291602001916113b7565b820191906000526020600020905b81548152906001019060200180831161139a57829003601f168201915b5050505050908060040180546113cc90612539565b80601f01602080910402602001604051908101604052809291908181526020018280546113f890612539565b80156114455780601f1061141a57610100808354040283529160200191611445565b820191906000526020600020905b81548152906001019060200180831161142857829003601f168201915b5050505050905085565b600080600360003373ffffffffffffffffffffffffffffffffffffffff1673ffffffffffffffffffffffffffffffffffffffff16815260200190815260200160002054116114d2576040517f08c379a00000000000000000000000000000000000000000000000000000000081526004016114c9906122f9565b60405180910390fd5b6000600360003373ffffffffffffffffffffffffffffffffffffffff1673ffffffffffffffffffffffffffffffffffffffff16815260200190815260200160002054905060005b83518163ffffffff16101561159f578160036000868463ffffffff168151811061154657611545612670565b5b602002602001015173ffffffffffffffffffffffffffffffffffffffff1673ffffffffffffffffffffffffffffffffffffffff168152602001908152602001600020819055508080611597906125e5565b915050611519565b50826040516115ae9190611fb5565b6040518091039020817f0e3ebb7eb6b18608937bced5d13fe9ac65e1834d44b8731ad1f496029d3e762c60405160405180910390a36001915050919050565b60008060009054906101000a900473ffffffffffffffffffffffffffffffffffffffff16905090565b6000600360003373ffffffffffffffffffffffffffffffffffffffff1673ffffffffffffffffffffffffffffffffffffffff16815260200190815260200160002054905090565b60025481565b61166b61175b565b73ffffffffffffffffffffffffffffffffffffffff166116896115ed565b73ffffffffffffffffffffffffffffffffffffffff16146116df576040517f08c379a00000000000000000000000000000000000000000000000000000000081526004016116d6906122b9565b60405180910390fd5b600073ffffffffffffffffffffffffffffffffffffffff168173ffffffffffffffffffffffffffffffffffffffff16141561174f576040517f08c379a000000000000000000000000000000000000000000000000000000000815260040161174690612299565b60405180910390fd5b61175881611763565b50565b600033905090565b60008060009054906101000a900473ffffffffffffffffffffffffffffffffffffffff169050816000806101000a81548173ffffffffffffffffffffffffffffffffffffffff021916908373ffffffffffffffffffffffffffffffffffffffff1602179055508173ffffffffffffffffffffffffffffffffffffffff168173ffffffffffffffffffffffffffffffffffffffff167f8be0079c531659141344cd1fd0a4f28419497f9722a3daafe3b4186f6b6457e060405160405180910390a35050565b82805461183390612539565b90600052602060002090601f016020900481019282611855576000855561189c565b82601f1061186e57805160ff191683800117855561189c565b8280016001018555821561189c579182015b8281111561189b578251825591602001919060010190611880565b5b5090506118a991906118fa565b5090565b8280548282559060005260206000209081019282156118e9579160200282015b828111156118e85782518255916020019190600101906118cd565b5b5090506118f691906118fa565b5090565b5b808211156119135760008160009055506001016118fb565b5090565b600061192a61192584612359565b612334565b9050808382526020820190508285602086028201111561194d5761194c6126d3565b5b60005b8581101561197d578161196388826119c9565b845260208401935060208301925050600181019050611950565b5050509392505050565b600061199a61199584612385565b612334565b9050828152602081018484840111156119b6576119b56126d8565b5b6119c18482856124f7565b509392505050565b6000813590506119d8816127c2565b92915050565b600082601f8301126119f3576119f26126ce565b5b8135611a03848260208601611917565b91505092915050565b600081359050611a1b816127d9565b92915050565b600082601f830112611a3657611a356126ce565b5b8135611a46848260208601611987565b91505092915050565b600081359050611a5e816127f0565b92915050565b600060208284031215611a7a57611a796126e2565b5b6000611a88848285016119c9565b91505092915050565b600060208284031215611aa757611aa66126e2565b5b600082013567ffffffffffffffff811115611ac557611ac46126dd565b5b611ad1848285016119de565b91505092915050565b600080600080600060a08688031215611af657611af56126e2565b5b600086013567ffffffffffffffff811115611b1457611b136126dd565b5b611b2088828901611a21565b955050602086013567ffffffffffffffff811115611b4157611b406126dd565b5b611b4d88828901611a21565b945050604086013567ffffffffffffffff811115611b6e57611b6d6126dd565b5b611b7a88828901611a21565b935050606086013567ffffffffffffffff811115611b9b57611b9a6126dd565b5b611ba788828901611a21565b925050608086013567ffffffffffffffff811115611bc857611bc76126dd565b5b611bd488828901611a21565b9150509295509295909350565b600080600080600080600080610100898b031215611c0257611c016126e2565b5b600089013567ffffffffffffffff811115611c2057611c1f6126dd565b5b611c2c8b828c01611a21565b985050602089013567ffffffffffffffff811115611c4d57611c4c6126dd565b5b611c598b828c01611a21565b975050604089013567ffffffffffffffff811115611c7a57611c796126dd565b5b611c868b828c01611a21565b965050606089013567ffffffffffffffff811115611ca757611ca66126dd565b5b611cb38b828c01611a21565b955050608089013567ffffffffffffffff811115611cd457611cd36126dd565b5b611ce08b828c01611a21565b94505060a089013567ffffffffffffffff811115611d0157611d006126dd565b5b611d0d8b828c01611a21565b93505060c089013567ffffffffffffffff811115611d2e57611d2d6126dd565b5b611d3a8b828c01611a21565b92505060e0611d4b8b828c01611a0c565b9150509295985092959890939650565b600060208284031215611d7157611d706126e2565b5b6000611d7f84828501611a4f565b91505092915050565b6000611d948383611dc7565b60208301905092915050565b6000611dac8383611f97565b60208301905092915050565b611dc18161249f565b82525050565b611dd08161249f565b82525050565b6000611de1826123d6565b611deb8185612411565b9350611df6836123b6565b8060005b83811015611e27578151611e0e8882611d88565b9750611e19836123f7565b925050600181019050611dfa565b5085935050505092915050565b6000611e3f826123e1565b611e49818561241c565b9350611e54836123c6565b8060005b83811015611e85578151611e6c8882611da0565b9750611e7783612404565b925050600181019050611e58565b5085935050505092915050565b611e9b816124b1565b82525050565b6000611eac826123ec565b611eb6818561242d565b9350611ec6818560208601612506565b611ecf816126e7565b840191505092915050565b6000611ee5826123ec565b611eef818561243e565b9350611eff818560208601612506565b80840191505092915050565b6000611f1860268361242d565b9150611f23826126f8565b604082019050919050565b6000611f3b60208361242d565b9150611f4682612747565b602082019050919050565b6000611f5e60188361242d565b9150611f6982612770565b602082019050919050565b6000611f8160178361242d565b9150611f8c82612799565b602082019050919050565b611fa0816124dd565b82525050565b611faf816124dd565b82525050565b6000611fc18284611dd6565b915081905092915050565b6000611fd88284611eda565b915081905092915050565b6000602082019050611ff86000830184611db8565b92915050565b60006020820190506120136000830184611e92565b92915050565b600060608201905081810360008301526120338186611ea1565b905081810360208301526120478185611ea1565b9050818103604083015261205b8184611ea1565b9050949350505050565b600060a082019050818103600083015261207f8188611ea1565b905081810360208301526120938187611ea1565b905081810360408301526120a78186611ea1565b905081810360608301526120bb8185611ea1565b905081810360808301526120cf8184611e34565b90509695505050505050565b600060a08201905081810360008301526120f58188611ea1565b905081810360208301526121098187611ea1565b9050818103604083015261211d8186611ea1565b905081810360608301526121318185611ea1565b905081810360808301526121458184611ea1565b90509695505050505050565b600060e082019050818103600083015261216b818a611ea1565b9050818103602083015261217f8189611ea1565b905081810360408301526121938188611ea1565b905081810360608301526121a78187611ea1565b905081810360808301526121bb8186611ea1565b905081810360a08301526121cf8185611ea1565b90506121de60c0830184611e92565b98975050505050505050565b6000610100820190508181036000830152612205818b611ea1565b90508181036020830152612219818a611ea1565b9050818103604083015261222d8189611ea1565b905081810360608301526122418188611ea1565b905081810360808301526122558187611ea1565b905081810360a08301526122698186611ea1565b905081810360c083015261227d8185611ea1565b905061228c60e0830184611e92565b9998505050505050505050565b600060208201905081810360008301526122b281611f0b565b9050919050565b600060208201905081810360008301526122d281611f2e565b9050919050565b600060208201905081810360008301526122f281611f51565b9050919050565b6000602082019050818103600083015261231281611f74565b9050919050565b600060208201905061232e6000830184611fa6565b92915050565b600061233e61234f565b905061234a828261256b565b919050565b6000604051905090565b600067ffffffffffffffff8211156123745761237361269f565b5b602082029050602081019050919050565b600067ffffffffffffffff8211156123a05761239f61269f565b5b6123a9826126e7565b9050602081019050919050565b6000819050602082019050919050565b6000819050602082019050919050565b600081519050919050565b600081519050919050565b600081519050919050565b6000602082019050919050565b6000602082019050919050565b600081905092915050565b600082825260208201905092915050565b600082825260208201905092915050565b600081905092915050565b6000612454826124dd565b915061245f836124dd565b9250827fffffffffffffffffffffffffffffffffffffffffffffffffffffffffffffffff0382111561249457612493612612565b5b828201905092915050565b60006124aa826124bd565b9050919050565b60008115159050919050565b600073ffffffffffffffffffffffffffffffffffffffff82169050919050565b6000819050919050565b600063ffffffff82169050919050565b82818337600083830152505050565b60005b83811015612524578082015181840152602081019050612509565b83811115612533576000848401525b50505050565b6000600282049050600182168061255157607f821691505b6020821081141561256557612564612641565b5b50919050565b612574826126e7565b810181811067ffffffffffffffff821117156125935761259261269f565b5b80604052505050565b60006125a7826124dd565b91507fffffffffffffffffffffffffffffffffffffffffffffffffffffffffffffffff8214156125da576125d9612612565b5b600182019050919050565b60006125f0826124e7565b915063ffffffff82141561260757612606612612565b5b600182019050919050565b7f4e487b7100000000000000000000000000000000000000000000000000000000600052601160045260246000fd5b7f4e487b7100000000000000000000000000000000000000000000000000000000600052602260045260246000fd5b7f4e487b7100000000000000000000000000000000000000000000000000000000600052603260045260246000fd5b7f4e487b7100000000000000000000000000000000000000000000000000000000600052604160045260246000fd5b600080fd5b600080fd5b600080fd5b600080fd5b600080fd5b6000601f19601f8301169050919050565b7f4f776e61626c653a206e6577206f776e657220697320746865207a65726f206160008201527f6464726573730000000000000000000000000000000000000000000000000000602082015250565b7f4f776e61626c653a2063616c6c6572206973206e6f7420746865206f776e6572600082015250565b7f596f752061726520616c72656164792061206d656d6265720000000000000000600082015250565b7f596f75206861766520746f2062652061206d656d626572000000000000000000600082015250565b6127cb8161249f565b81146127d657600080fd5b50565b6127e2816124b1565b81146127ed57600080fd5b50565b6127f9816124dd565b811461280457600080fd5b5056fea2646970667358221220e46c28387967580d7f699bde9209a6ad8cfa4f930f068494f1dd83038ffa0df364736f6c63430008070033",
  "linkReferences": {},
  "deployedLinkReferences": {}
}